:0E0000000C943D000C9400000C9400000C9435
:10000E0000000C9400000C9400000C9400000C9462
:10001E0000000C9400000C9400000C9400000C9452
:10002E0000000C9400000C9400000C9400000C9442
:10003E0000000C9400000C9400000C9400000C9432
:10004E0000000C9400000C9400000C9400000C9422
:10005E0000000C9400000C9400003F065B4F666D90
:10006E007D077F6F0A00000368000000F894EE27FA
:10007E00EFBBF1E0F5BFE5BF8DE0A2E0BB27ED934E
:10008E008A95E9F780E098E0A0E0B1E0ED93019762
:10009E00E9F7E2E7F0E085919591009761F0A5917F
:1000AE00B59105901590BF01F00105900D92019745
:1000BE00E1F7FB01F0CFE0E0EEBBEFEFEDBFE8E0E4
:1000CE00EEBFC0E0D3E00C94ED00AA93E881E1709E
:1000DE0019F0E8B1E16002C0E8B1EE7FE8B9E8815D
:1000EE00E27019F0E5B1E06202C0E5B1EF7DE5B96D
:1000FE00E881E47019F0E8B1E26002C0E8B1ED7F8A
:10010E00E8B9E881E87019F0E8B1E46002C0E8B13E
:10011E00EB7FE8B9E881E07119F0E8B1E86002C060
:10012E00E8B1E77FE8B9E881E07219F0E8B1E06183
:10013E0002C0E8B1EF7EE8B9E881E07419F0E8B1E9
:10014E00E06202C0E8B1EF7DE8B9E881E07819F02D
:10015E00EBB1E16002C0EBB1EE7FEBB921960895F1
:10016E00AA93599A5A9A5B9A5C9AEB81F0E0E05006
:10017E00FD4FA081AADF5998A2E0B0E00E94FD00D9
:10018E00599AEA81F0E0E050FD4FA0819EDF5A9827
:10019E00A2E0B0E00E94FD005A9AE981F0E0E05042
:1001AE00FD4FA08192DF5B98A2E0B0E00E94FD00BF
:1001BE005B9AE881F0E0E050FD4FA08186DF5C980D
:1001CE00A2E0B0E00E94FD0024960895259AE7B1C2
:1001DE00EF63E7B9EAB1EF61EAB9E2E0EA93E0E092
:1001EE00EA93EA93A0E0BCDFF8CFFFCF109639F088
:1001FE0080EA9FE00197F1F7A8951197C9F7089546
:00000001FF
