:040000000C9442001A
:100004000C9400000C9400000C9400000C9400006C
:100014000C9400000C9400000C9400000C9400005C
:100024000C9400000C9400000C9400000C9400004C
:100034000C9400000C9400000C9400000C9400003C
:100044000C9400000C9497000C9400000C94000095
:100054000C9400000C9400000C9400000C9400001C
:100064000C9400001027E80364000A00010000104B
:1000740000011000010080C0020000037A000000AB
:10008400F894EE27EFBBF1E0F5BFE5BF8DE0A2E009
:10009400BB27ED938A95E9F780E098E0A0E0B1E012
:1000A400ED930197E9F7ECE7F0E0859195910097DE
:1000B40061F0A591B59105901590BF01F0010590EF
:1000C4000D920197E1F7FB01F0CFE0E0EEBBEFEF1B
:1000D400EDBFE8E0EEBFC0E0D3E00C947100E0E8CF
:1000E400E0936100E0E0E0936100E2E0E093C000AF
:1000F400E8E9E093C100E6E0E093C200E0E0E093C9
:10010400C500EFECE093C400A0E10E942301559ADE
:10011400389A7894A2E3B0E00E946001409B02C048
:10012400409801C0409AF6CFFFCF0A921A92FA92F1
:100134006A937A938A939A93AA93BA93EA93FA93D3
:10014400EFB7EA934090C600E9E7E41509F45D9A35
:10015400EEE6E41509F45D98E0E0EA93A0E00E947D
:10016400F600A42D0E940F01E991EFBFF991E991E6
:10017400B991A9919991899179916991F99019907D
:1001840009901895AA93E881E07111F0299A01C0A9
:100194002998E881E07211F0289A01C02898E88132
:1001A400E07411F05F9A01C05F98E881E07811F083
:1001B4005E9A01C05E988BE18A95F1F72A9A8BE1E9
:1001C4008A95F1F72A988BE18A95F1F767C0AA938B
:1001D400A881D8DFE881E295E883A881D3DF88ECA1
:1001E40090E00197F1F75AC0AA93E881F0E0E0505B
:1001F400FD4FE081A981AE0FEADF39806880229645
:100204000895A2E00E945201ACE0E1DFA1E00E9467
:100214005201E0E06E2E3E2E0895AA93A881AA30E2
:1002240011F0351440F0E0E0EA936394A62DDCDF8E
:10023400A881AA3099F133942C9AA881C8DF2C980C
:100244002DC0AA93219A209A579A569A229A249AB0
:10025400239A2A982C982B985880E881E058E093A8
:100264000203E881E054E0930303A4E1B0E00E94B8
:1002740060010E9458010E9458010E945801A0E2A6
:1002840081DF80E991E00197F1F7A8E2A0DFA4E023
:100294009EDFA5E89CDFA6E09ADFB3DF21960895F0
:1002A4000E94E900A3E0B0E00C946001A0E30E9486
:1002B400C40080E991E00197F1F70895109639F0B0
:1002C40080EA9FE00197F1F7A8951197C9F708957F
:00000001FF
